:020000040000fa
:080000000002040000000000f2
:020000040000fa
:040008008803000069
:020000040000fa
:04000c00ca03000023
:020000040000fa
:040010000a040000de
:020000040000fa
:04001400a80300003d
:020000040000fa
:04001800ea030000f7
:020000040000fa
:04001c006404000078
:020000040000fa
:040020002a040000ae
:020000040000fa
:040024006404000070
:020000040000fa
:040028004c03000085
:020000040000fa
:04002c006404000068
:020000040000fa
:040030006404000064
:020000040000fa
:040034006404000060
:020000040000fa
:04003800640400005c
:020000040000fa
:04003c006404000058
:020000040000fa
:040040006404000054
:020000040000fa
:040044006404000050
:020000040000fa
:04004800640400004c
:020000040000fa
:04004c006404000048
:020000040000fa
:040050006404000044
:020000040000fa
:040054006404000040
:020000040000fa
:04005800640400003c
:020000040000fa
:04005c006404000038
:020000040000fa
:040060006404000034
:020000040000fa
:040064006a0300002b
:020000040000fa
:04006800640400002c
:020000040000fa
:04006c006404000028
:020000040000fa
:040070006404000024
:020000040000fa
:040074006404000020
:020000040000fa
:04007800640400001c
:020000040000fa
:04007c006404000018
:020000040000fa
:040080006404000014
:020000040000fa
:040084006404000010
:020000040000fa
:04008800640400000c
:020000040000fa
:04008c006404000008
:020000040000fa
:040090006404000004
:020000040000fa
:040094006404000000
:020000040000fa
:0400980064040000fc
:020000040000fa
:04009c0064040000f8
:020000040000fa
:0400a00064040000f4
:020000040000fa
:0400a40064040000f0
:020000040000fa
:0400a80064040000ec
:020000040000fa
:0400ac0064040000e8
:020000040000fa
:0400b00064040000e4
:020000040000fa
:0400b40064040000e0
:020000040000fa
:0400b80064040000dc
:020000040000fa
:0400bc0064040000d8
:020000040000fa
:0400c00064040000d4
:020000040000fa
:0400c40064040000d0
:020000040000fa
:0400c80064040000cc
:020000040000fa
:0400cc0064040000c8
:020000040000fa
:0400d00064040000c4
:020000040000fa
:0400d40064040000c0
:020000040000fa
:0400d80064040000bc
:020000040000fa
:0400dc0064040000b8
:020000040000fa
:0400e00064040000b4
:020000040000fa
:0400e40064040000b0
:020000040000fa
:0400e80064040000ac
:020000040000fa
:0400ec0064040000a8
:020000040000fa
:0400f00064040000a4
:020000040000fa
:0400f40064040000a0
:020000040000fa
:0400f800640400009c
:020000040000fa
:0400fc006404000098
:020000040000fa
:040100006404000093
:020000040000fa
:04010400640400008f
:020000040000fa
:04010800640400008b
:020000040000fa
:04010c006404000087
:020000040000fa
:040110006404000083
:020000040000fa
:04011400640400007f
:020000040000fa
:04011800640400007b
:020000040000fa
:04011c006404000077
:020000040000fa
:040120006404000073
:020000040000fa
:04012400640400006f
:020000040000fa
:04012800640400006b
:020000040000fa
:04012c006404000067
:020000040000fa
:040130006404000063
:020000040000fa
:04013400640400005f
:020000040000fa
:04013800640400005b
:020000040000fa
:04013c006404000057
:020000040000fa
:040140006404000053
:020000040000fa
:04014400640400004f
:020000040000fa
:04014800640400004b
:020000040000fa
:04014c006404000047
:020000040000fa
:040150006404000043
:020000040000fa
:04015400640400003f
:020000040000fa
:040158000a03000096
:020000040000fa
:04015c006404000037
:020000040000fa
:040160006404000033
:020000040000fa
:04016400640400002f
:020000040000fa
:04016800640400002b
:020000040000fa
:04016c006404000027
:020000040000fa
:040170006404000023
:020000040000fa
:04017400640400001f
:020000040000fa
:04017800640400001b
:020000040000fa
:04017c006404000017
:020000040000fa
:040180006404000013
:020000040000fa
:04018400640400000f
:020000040000fa
:04018800640400000b
:020000040000fa
:04018c006404000007
:020000040000fa
:040190006404000003
:020000040000fa
:0401940064040000ff
:020000040000fa
:0401980064040000fb
:020000040000fa
:04019c0064040000f7
:020000040000fa
:0401a00064040000f3
:020000040000fa
:0401a40064040000ef
:020000040000fa
:0401a80064040000eb
:020000040000fa
:0401ac0064040000e7
:020000040000fa
:0401b00064040000e3
:020000040000fa
:0401b40064040000df
:020000040000fa
:0401b80064040000db
:020000040000fa
:0401bc0064040000d7
:020000040000fa
:0401c00064040000d3
:020000040000fa
:0401c40064040000cf
:020000040000fa
:0401c80064040000cb
:020000040000fa
:0401cc0064040000c7
:020000040000fa
:0401d00064040000c3
:020000040000fa
:0401d40064040000bf
:020000040000fa
:0401d80064040000bb
:020000040000fa
:0401dc0064040000b7
:020000040000fa
:0401e00064040000b3
:020000040000fa
:0401e40064040000af
:020000040000fa
:0401e80064040000ab
:020000040000fa
:0401ec0064040000a7
:020000040000fa
:0401f00064040000a3
:020000040000fa
:0401f400640400009f
:020000040000fa
:0401f800640400009b
:020000040000fa
:0401fc006404000097
:020000040000fa
:040200006404000092
:020000040000fa
:04020400640400008e
:020000040000fa
:04020800640400008a
:020000040000fa
:04020c006404000086
:020000040000fa
:040210006404000082
:020000040000fa
:04021400640400007e
:020000040000fa
:04021800640400007a
:020000040000fa
:04021c006404000076
:020000040000fa
:040220006404000072
:020000040000fa
:04022400640400006e
:020000040000fa
:04022800640400006a
:020000040000fa
:04022c006404000066
:020000040000fa
:040230006404000062
:020000040000fa
:04023400640400005e
:020000040000fa
:04023800640400005a
:020000040000fa
:04023c006404000056
:020000040000fa
:040240006404000052
:020000040000fa
:04024400640400004e
:020000040000fa
:04024800640400004a
:020000040000fa
:04024c006404000046
:020000040000fa
:040250006404000042
:020000040000fa
:04025400640400003e
:020000040000fa
:04025800640400003a
:020000040000fa
:04025c006404000036
:020000040000fa
:040260006404000032
:020000040000fa
:04026400640400002e
:020000040000fa
:04026800640400002a
:020000040000fa
:04026c006404000026
:020000040000fa
:040270006404000022
:020000040000fa
:04027400640400001e
:020000040000fa
:04027800640400001a
:020000040000fa
:04027c006404000016
:020000040000fa
:040280006404000012
:020000040000fa
:04028400640400000e
:020000040000fa
:04028800640400000a
:020000040000fa
:04028c006404000006
:020000040000fa
:040290006404000002
:020000040000fa
:0402940064040000fe
:020000040000fa
:0402980064040000fa
:020000040000fa
:04029c0064040000f6
:020000040000fa
:0402a00064040000f2
:020000040000fa
:0402a40064040000ee
:020000040000fa
:0402a80064040000ea
:020000040000fa
:0402ac0064040000e6
:020000040000fa
:0402b00064040000e2
:020000040000fa
:0402b40064040000de
:020000040000fa
:0402b80064040000da
:020000040000fa
:0402bc0064040000d6
:020000040000fa
:0402c00064040000d2
:020000040000fa
:0402c40064040000ce
:020000040000fa
:0402c80064040000ca
:020000040000fa
:0402cc0064040000c6
:020000040000fa
:0402d00064040000c2
:020000040000fa
:0402d40064040000be
:020000040000fa
:0402d80064040000ba
:020000040000fa
:0402dc0064040000b6
:020000040000fa
:0402e00064040000b2
:020000040000fa
:0402e40064040000ae
:020000040000fa
:0402e80064040000aa
:020000040000fa
:0402ec0064040000a6
:020000040000fa
:0402f00064040000a2
:020000040000fa
:0402f400640400009e
:020000040000fa
:0402f800640400009a
:020000040000fa
:0402fc006404000096
:020000040000fa
:040300006404000091
:020000040000fa
:04030400640400008d
:020000040000fa
:040308006404000089
:020000040000fa
:04030c006404000085
:020000040000fa
:040310006404000081
:020000040000fa
:04031400640400007d
:020000040000fa
:040318006404000079
:020000040000fa
:04031c006404000075
:020000040000fa
:040320006404000071
:020000040000fa
:04032400640400006d
:020000040000fa
:040328006404000069
:020000040000fa
:04032c006404000065
:020000040000fa
:040330006404000061
:020000040000fa
:04033400640400005d
:020000040000fa
:10040000cf0221000eff26000e0188000000000030
:10041000000020000000e000020032000001200087
:100420002002880014000700290107000000e000f6
:1004300003003a0040be2000010020000200370007
:100440000000200001002000810f70000100320038
:100450000f000700000020000000e0000200320052
:100460000000020000000000800802000000000000
:100470000040da000000fe00200020000000e00044
:1004800002003200100020009001880000000600e9
:10049000a1028800800478000000eb001f003700f4
:1004a000e284440054a0b4009905ba00e2844400f8
:1004b00054a0b4009906ba00e284440054a0b400e9
:1004c0000006eb00476fde00fd07b200ae018800ba
:1004d000636ce10003003a000ad801000000eb0061
:1004e0000e003700606ce10008003a00004deb00a0
:1004f0000a05e800020039003420ec000af0a000f0
:100500008b05e900f9ff3e00040037006168e10057
:10051000010032000086eb000b00070019c7ba008b
:100520001905ba000e04e00003003a000a00e000da
:10053000dbff3a0000000600fe07b200ae028800b2
:100540008a047800f5ff37000cd0a300e20f4d00bd
:100550001c003b0089027800354dba000a05e8000e
:10056000020039003420ec000af0a0008b05e900fd
:100570000f003200254dba000a05e80002003900dc
:100580003420ec000af0a0008b05e90008003200de
:100590000c00e0000600320015cdba000a05e800a4
:1005a000020039003420ec000af0a0008b05e900bd
:1005b0008984e80054a0b4000b00e000e2ff3a0098
:1005c000000006009902ba00055d78008b05e9007d
:1005d000f7ff3200c82ade00055d78008b05e900d0
:1005e000f3ff32000c00e000f1ff320019ddba0029
:1005f000eeff37008e0a040000000000940a040099
:100600000000000052080400000000006808040018
:10061000000000003600f8000000fa0041408000b1
:1006200000002100008060000000e00017003200a0
:100630003174800000082000008060000000e000ad
:1006400006003200008080000000e000020032005e
:10065000008080000000010086eea9003174800057
:1006600000102000008060000000e0000600320062
:10067000108080000000e000020032001080800046
:1006800000000100870ea9000988a9000080fa0077
:100690003600f900004006003600f800809fbe00da
:1006a000829fbe00849fbe00869fbe000000fa00ad
:1006b000f30307000008a9000080fa004f03be0002
:1006c0004f02be004f01be004f00be003600f900d1
:1006d000004006003600f800809fbe00829fbe00ea
:1006e000849fbe00869fbe000000fa00ec03070056
:1006f00001e8a9000080fa004f03be004f02be00cf
:100700004f01be004f00be003600f9000040060059
:100710003600f800809fbe00829fbe00849fbe000e
:10072000869fbe000000fa00c028a9000000eb0070
:10073000440407000080fa004f03be004f02be00d1
:100740004f01be004f00be003600f9000040060019
:100750003600f800809fbe00829fbe00849fbe00ce
:10076000869fbe000000fa003b040700c048a900b5
:1007700010002000330407000080fa004f03be0081
:100780004f02be004f01be004f00be003600f90010
:10079000004006003600f800809fbe00829fbe0029
:1007a000849fbe00869fbe000000fa00c068a900ba
:1007b00020002000230407000080fa004f03be0041
:1007c0004f02be004f01be004f00be003600f900d0
:1007d000004006003600f800809fbe00829fbe00e9
:1007e000849fbe00869fbe000000fa00c088a9005a
:1007f00030002000130407000080fa004f03be0001
:100800004f02be004f01be004f00be003600f9008f
:10081000004006003600f800809fbe00829fbe00a8
:10082000849fbe00869fbe000000fa00c608a90093
:1008300070002000030407000080fa004f03be0090
:100840004f02be004f01be004f00be003600f9004f
:10085000004006003600f800809fbe00829fbe0068
:10086000849fbe00869fbe000000fa0021468000e3
:1008700000102000008060000000e0000300320053
:10088000c508a900c0002000ee0307002046800034
:10089000700060000000e00003003200c488a9007e
:1008a000a0002000e70307002046800061006000f0
:1008b0000000e00003003200c408a900b0002000de
:1008c000e0030700ffff37000040da000000fe00f1
:0408d000000005001f
:020000040000fa
:1008d4000000fa00c3e8a8000000000000000000c7
:1008e4000080fa00000006000000fa005a0ea90079
:1008f4005a2ea9005a4ea9005a6ea9005a8ea90070
:100904005aaea9005acea9005aeea9000080fa00f6
:10091400000006000000fa005a0ea8005a2ea80093
:100924005a4ea8005a6ea8005a8ea8005aaea800c3
:100934005acea8005aeea8000080fa000000060073
:100944000000fa00e8ff070000502300c100200067
:10095400ad030700efff070000502300c100200093
:10096400a90307000080fa00000006000200fa0054
:10097400000f78001e007800e40f500018003200c9
:10098400e40f500007003c00e20f5000100032005a
:10099400e20f500010003c00e10f50000a0032004a
:1009a40019003700e60f500011003200e60f500026
:1009b4000d003500e70f50000f003200e80f500023
:1009c4000f003200100037005a0ea8000e00370046
:1009d4005a2ea8000c0037005a4ea8000a0037000f
:1009e4005a6ea800080037005a8ea8000600370087
:1009f4005aaea800040037005acea80002003700ff
:100a04005aeea800000000000080fa000000060072
:100a14000200fa00000f78001e007800e40f500076
:100a240018003200e40f500007003c00e20f5000b1
:100a340010003200e20f500010003c00e10f5000a3
:100a44000a00320019003700e60f5000110032008e
:100a5400e60f50000d003500e70f50000f00320084
:100a6400e80f50000f003200100037005a0ea900a2
:100a74000e0037005a2ea9000c0037005a4ea90068
:100a84000a0037005a6ea900080037005a8ea900e0
:100a9400060037005aaea900040037005acea90058
:100aa400020037005aeea900000000000080fa009e
:100ab400000006000400fa002047980010002000ff
:100ac400000f78000f0037002e4090008080fb005c
:100ad400820020001e0051000088de0061006000da
:100ae400004078000004e000030032001e0078009b
:100af4009eff0700020037001e007800c4ff0700b5
:100b04001e0fe8001e007800e80f5000eeff3400ce
:100b14000080fa00000006000400fa0080002000b3
:100b2400000f7800060037001e0078008fff0700d2
:100b340000502300c1002000330307001e0fe9000a
:100b44001e0078000000e000f7ff3c008000200059
:100b540010079800080037001e009000acff070043
:100b640000502300c1002000270307001e0090004e
:100b74000000e900100798001e0090000000e0004b
:100b8400f5ff3c000080fa00000006000400fa00b3
:100b940010002000000f7800060037001e007800c7
:100ba40072ff070000502300c10020001603070055
:100bb4001e0fe8001e007800e80f5000f7ff340015
:100bc4001000200010079800080037001e00900055
:100bd4008fff070000502300c10020000a03070014
:100be4001e0090000000e800100798001e0090000e
:100bf400e80f5000f5ff34000080fa000000060002
:100c04000400fa0010002000000f780009003700eb
:100c14001e00780055ff0700910020001e80500040
:100c240052ff070000a8210061002000f60207001f
:100c34001e0fe8001e007800e40f5000f4ff34009b
:100c440010002000100798000b0037001e009000d1
:100c54006fff07001e009000690010006cff070082
:100c640000a8210061002000e70207001e00900098
:100c74000000e800100798001e009000e40f5000e8
:100c8400f2ff34000080fa00000006000400fa00bd
:100c94000000eb00000f78000a003700410020003c
:100ca4001e80500031ff07009e00780065804000e0
:100cb4002eff070000a8210061002000d2020700d7
:100cc4001e0fe8001e007800e30f5000f3ff34000d
:100cd4000000eb00100798000c0037001e00900085
:100ce400640010004aff07001e00900065004000e9
:100cf40047ff070000a8210061002000c20207008e
:100d04001e0090000000e800100798001e009000ec
:100d1400e30f5000f1ff34000080fa0000000600e9
:100d24000400fa0010002000000f780011003700c2
:100d34009e00780010002800008060000000e000a1
:100d440004003d000000e900e1ff2f000080700076
:100d54000000e800e10f500003003a001e00780094
:100d640002ff0700020037001e00780028ff07007a
:100d74001e0fe8001e007800e80f5000ecff34005e
:100d840000a82100610020009f020700100020003d
:100d9400100798000c0037001e00900061006000ee
:100da4000000e00003003a001e009000effe070080
:100db400020037001e00900015ff07001e0090007f
:100dc4000000e800100798001e009000e80f500093
:100dd400f1ff340000502300c10020008a02070004
:100de4000080fa00000006000800fa000040eb0052
:100df400004f780010c0b300104798000040eb008b
:100e0400204798000000eb00200798001b003700e3
:100e1400ae009000310798000e0037009e4090000d
:100e24002e40900000cf70001e40780021ff070084
:100e340000502300c1002000730207001e409000f0
:100e440000404000104798003e0090000000e80079
:100e5400300798003e009000e70f5000efff340089
:100e64009e4078002147980010c0b30010479800b6
:100e74002e0090000000e800200798002e0090004b
:100e8400e70f5000e2ff34000080fa000000060083
:100e94000800fa000040eb00004f780000c8b300df
:100ea400104798000040eb00204798000000eb003a
:100eb400200798001c003700ae009000310798000e
:100ec4000f0037009e4090002e40900000cf70002d
:100ed4001e407800f7fe070000502300c1002000e8
:100ee400490207001e4090000080fb000000d10072
:100ef400104798003e0090000000e800300798007a
:100f04003e009000e70f5000eeff34009e40780052
:100f14002147980000c8b300104798002e009000a5
:100f24000000e800200798002e009000e70f500012
:100f3400e1ff34000080fa00000006000800fa0017
:100f440000c0eb00004f780010c0b30010479800b9
:100f540000c0eb00204798000000eb002007980039
:100f64001d003700ae0090003107980010003700d4
:100f74001e40900080c0ea002e40900000c0600037
:100f8400004f78001e407800cafe0700005023007e
:100f9400c10020001c0207001e40900000404000d9
:100fa400104798003e0090000000e80030079800c9
:100fb4003e009000e70f5000edff34009e407800a3
:100fc4002147980010c0b300104798002e009000ed
:100fd4000000e800200798002e009000e70f500062
:100fe400e0ff34000080fa00000006000800fa0068
:100ff40000c0eb00004f780000c8b3001047980011
:1010040000c0eb00204798000000eb002007980088
:101014001e003700ae009000310798001100370021
:101024001e40900080c0ea002e40900000c0600086
:10103400004f78001e4078009efe070000502300f9
:10104400c1002000f00107001e4090000080fb005a
:101054000000d100104798003e0090000000e80016
:10106400300798003e009000e70f5000ecff34007a
:101074009e4078002147980000c8b30010479800ac
:101084002e0090000000e800200798002e00900039
:10109400e70f5000dfff34000080fa000000060074
:1010a4000000fa00a07380000ad0bf000040e800ee
:1010b4000af0b7000ad0bf00eb4f500001003a001d
:1010c4000a70ef000080fa00000006000000fa0039
:1010d400a07380000ad0bf000040e9000af0b70006
:1010e4000ad0bf000004e00002003a00a0c0b30030
:1010f4000af0b7000080fa00000006000000fa00c1
:1011040094010700f2fd0700780107002085200004
:101114000701070080862000130107000a70ef0012
:101124000ad0bf000080fb006101b9000080eb0021
:101134008080eb0002004000838048009200200081
:1011440003002000820f5000838f58001f003e00d0
:1011540000060100090037000a0037000b003700c1
:101164000c0037000d0037000e0037000f00370069
:10117400100037001100370012003700f0fd07009f
:101184001300370064fe0700110037007ffe0700dc
:101194000f0037009afe07000d003700bbfe070062
:1011a4000b003700defe0700090037000eff0700c2
:1011b4000700370036ff0700050037005fff070010
:1011c4000300370089ff070001003700000000001a
:1011d400d3ff37000000fa00007c80000080fa0092
:1011e400000006000200fa00faff0700000f780072
:1011f4001e007800240007000004e0000200320012
:1012040000002800710007001e0078002a00070073
:101214000004e00002003200000024006b0007001c
:101224001e007800320007000004e00002003200d3
:1012340000202000650007001e0078003a00070027
:101244000004e00002003200000820005f000700f4
:101254001e007800420007000004e0000200320093
:1012640000042000590007001e0078004a0007000f
:101274000004e000020032000001200053000700d7
:101284000080fa00000006000400fa00100798002d
:101294000040eb00004f78001e0090000000e000ca
:1012a40002003d0010c0b300004f78001e407800db
:1012b4000080fa00000006000400fa0010079800fd
:1012c4000040eb00004f78009e00900000002400d6
:1012d400008060000000e0000200320010c0b30093
:1012e400004f78001e4078000080fa0000000600dd
:1012f4000400fa00100798000040eb00004f78004b
:101304009e00900000202000008060000000e000ab
:101314000200320010c0b300004f78001e40780075
:101324000080fa00000006000400fa00100798008c
:101334000040eb00004f78009e0090000008200061
:10134400008060000000e0000200320010c0b30022
:10135400004f78001e4078000080fa00000006006c
:101364000400fa00100798000040eb00004f7800da
:101374009e00900000042000008060000000e00057
:101384000200320010c0b300004f78001e40780005
:101394000080fa00000006000400fa00100798001c
:1013a4000040eb00004f78001e00900070006000c9
:1013b4000000e0000200320010c0b300004f7800cb
:1013c4001e4078000080fa00000006000200fa00c7
:1013d400000f78009e80ea00007c8000008060009e
:1013e400007c88000080fa00000006000000fa007b
:1013f400802fef000080fa00000006000000fa00d1
:10140400062eef00222eef003e2eef005a2eef00a4
:10141400762eef00f001200010708800d0ff2f001e
:10142400f07088000080eb00d071880000f02f007d
:10143400b07288000080eb00907388000c2eef00df
:10144400282eef00442eef00602eef007c2eef00dc
:101454000a2eef00262eef00422eef00f00f2000a0
:10146400f072880000002600d0738800082eef0078
:10147400242eef00402eef005c2eef00782eef00bc
:10148400f00120000070880090092000e0708800be
:10149400f00c2000c071880000c02200a0728800f7
:1014a400f0002000807388000000eb00510520004c
:1014b400b1468800a10a2000b1468800006888006f
:1014c400a0c3b30005edb700008020005105200043
:1014d400b1468800a10a2000b1468800006888004f
:1014e40080eea800810ea80086eea900870ea90050
:1014f4007f6ea8007feea800e0a820000c00070083
:1015040040a92000180007000988a9002988a8001c
:101514000080fa00000006000000fa000080fa00d3
:10152400000006000000fa000080fa000000060037
:101534000200fa00000f78002988a9009e007800b4
:10154400018088002988a8000080fa0000000600b5
:101554000200fa00000f78001e007800f4ff070074
:101564000080fa00000006000200fa00000f780074
:101574002988a9009e007800118088002988a80085
:101584000080fa00000006000200fa00000f780054
:101594001e007800f4ff07000080fa000000060037
:1015a4000000fa0010002300307c8800600920004d
:1015b400407c88008c2fef0010042000507c8800b1
:1015c40010102000707c880060092000807c880056
:1015d40010042000907c88009a2fef00b82fef00b1
:1015e400ba2fef00be2fef00002def00a02fef0069
:1015f400a42fef00a62fef00a82fef00aa2fef00d3
:10160400ae2fef00b02fef00b22fef0072002000da
:1016140080072000a109200053f8200080497800a9
:1016240081497800824978000001eb0060042000c1
:101634007105200043f82000804978008149780032
:10164400824978000080fa00000006000000fa00d9
:10165400707c8000ee800a00000000000080fb0027
:1016640000f0a7000000ea000000ea004f00de00de
:10167400004078000080fa00000006000000fa0034
:10168400208080000000e000020032002080800002
:10169400000001000080fa00000006000000fa00cb
:1016a400308080000000e0000200320030808000c2
:1016b400000001000080fa00000006000200fa00a9
:1016c400000f78009e007800218088000080fa00d6
:1016d400000006000200fa00000f78001e007800e7
:1016e400308088000080fa00000006000000fa0044
:1016f4000008a900c208a9002008a80001e8a90060
:10170400c228a90021e8a8000430ef000630ef0049
:101714000080fa00000006000200fa00000f7800c2
:1017240021028000200f2000008060001e00700055
:10173400200288000080fa00000006000000fa0081
:10174400c3e8a80000000000000000000080fa00c8
:10175400000006000000fa0028ff070090ff0700c1
:1017640006000700e1ff0700f4ff07000002200065
:10177400e9ff07000080fa00000006000000fa00fc
:101784000142800080ff2f00008060000000a00064
:101794000042880031428000f0ff28000080600091
:1017a40000c0a000304288003143800080ff2f0039
:1017b400008060000000a000304388000080fa0030
:0417c400000006001b
:020000040000fa
:1017c8000010000004000000800000000410000069
:1017d80004000000800000000c1000002000000041
:1017e80080000000081000000200000082000000d5
:1017f800ffff00000a100000020000008000000047
:0418080000000000dc
:020000040000fa
:10180c00f03fb1000180b10006003500ee03090085
:10181c0000000000403fb1000180b100fbff3d0023
:10182c001000b000203fb00002003500008009001d
:08183c0000000000000006009e
:020000040000fa
:101844000200fa00000f78009e00780041808800b2
:10185400ffff37000000fa00c00021008007780075
:1018640040022100000188000080fa000000060008
:020000040000fa
:020000040005f5
:047e0000ffffff0081
:020000040000fa
:020000040005f5
:047e2000ffffff0061
:020000040000fa
:020000040005f5
:047e30007fffff00d1
:020000040000fa
:020000040005f5
:047e3800bfffff0089
:020000040000fa
:020000040005f5
:047e40007f7fff0041
:020000040000fa
:020000040005f5
:047e4800ffffff0039
:020000040000fa
:020000040005f5
:047e5000dfffff0051
:020000040000fa
:020000040005f5
:047e58000000ff0027
:020000040000fa
:020000040005f5
:047e60000000ff001f
:020000040000fa
:020000040005f5
:047e68000000ff0017
:020000040000fa
:020000040005f5
:047e70000000ff000f
:020000040000fa
:020000040005f5
:047e7800ffffff0009
:020000040000fa
:020000040005f5
:047e8000fffcff0004
:020000040000fa
:020000040005f5
:047e8800f8ffff0000
:020000040000fa
:020000040005f5
:047ff800ffffff0088
:020000040000fa
:020000040100f9
:04300000ffffff00cf
:00000001FF
